{
  "_format": "hh-sol-artifact-1",
  "contractName": "MyEpicGame",
  "sourceName": "contracts/MyEpicGame.sol",
  "abi": [
    {
      "inputs": [
        {
          "internalType": "string[]",
          "name": "characterNames",
          "type": "string[]"
        },
        {
          "internalType": "string[]",
          "name": "characterImageURIs",
          "type": "string[]"
        },
        {
          "internalType": "uint256[]",
          "name": "characterHp",
          "type": "uint256[]"
        },
        {
          "internalType": "uint256[]",
          "name": "characterAttackDmg",
          "type": "uint256[]"
        },
        {
          "internalType": "string",
          "name": "bossName",
          "type": "string"
        },
        {
          "internalType": "string",
          "name": "bossImageURI",
          "type": "string"
        },
        {
          "internalType": "uint256",
          "name": "bossHp",
          "type": "uint256"
        },
        {
          "internalType": "uint256",
          "name": "bossAttackDamage",
          "type": "uint256"
        }
      ],
      "stateMutability": "nonpayable",
      "type": "constructor"
    },
    {
      "anonymous": false,
      "inputs": [
        {
          "indexed": true,
          "internalType": "address",
          "name": "owner",
          "type": "address"
        },
        {
          "indexed": true,
          "internalType": "address",
          "name": "approved",
          "type": "address"
        },
        {
          "indexed": true,
          "internalType": "uint256",
          "name": "tokenId",
          "type": "uint256"
        }
      ],
      "name": "Approval",
      "type": "event"
    },
    {
      "anonymous": false,
      "inputs": [
        {
          "indexed": true,
          "internalType": "address",
          "name": "owner",
          "type": "address"
        },
        {
          "indexed": true,
          "internalType": "address",
          "name": "operator",
          "type": "address"
        },
        {
          "indexed": false,
          "internalType": "bool",
          "name": "approved",
          "type": "bool"
        }
      ],
      "name": "ApprovalForAll",
      "type": "event"
    },
    {
      "anonymous": false,
      "inputs": [
        {
          "indexed": false,
          "internalType": "uint256",
          "name": "newBossHp",
          "type": "uint256"
        },
        {
          "indexed": false,
          "internalType": "uint256",
          "name": "newPlayerHp",
          "type": "uint256"
        }
      ],
      "name": "AttackComplete",
      "type": "event"
    },
    {
      "anonymous": false,
      "inputs": [
        {
          "indexed": false,
          "internalType": "address",
          "name": "sender",
          "type": "address"
        },
        {
          "indexed": false,
          "internalType": "uint256",
          "name": "tokenId",
          "type": "uint256"
        },
        {
          "indexed": false,
          "internalType": "uint256",
          "name": "characterIndex",
          "type": "uint256"
        }
      ],
      "name": "CharacterNFTMinted",
      "type": "event"
    },
    {
      "anonymous": false,
      "inputs": [
        {
          "indexed": true,
          "internalType": "address",
          "name": "from",
          "type": "address"
        },
        {
          "indexed": true,
          "internalType": "address",
          "name": "to",
          "type": "address"
        },
        {
          "indexed": true,
          "internalType": "uint256",
          "name": "tokenId",
          "type": "uint256"
        }
      ],
      "name": "Transfer",
      "type": "event"
    },
    {
      "inputs": [
        {
          "internalType": "address",
          "name": "to",
          "type": "address"
        },
        {
          "internalType": "uint256",
          "name": "tokenId",
          "type": "uint256"
        }
      ],
      "name": "approve",
      "outputs": [],
      "stateMutability": "nonpayable",
      "type": "function"
    },
    {
      "inputs": [],
      "name": "attackBoss",
      "outputs": [],
      "stateMutability": "nonpayable",
      "type": "function"
    },
    {
      "inputs": [
        {
          "internalType": "address",
          "name": "owner",
          "type": "address"
        }
      ],
      "name": "balanceOf",
      "outputs": [
        {
          "internalType": "uint256",
          "name": "",
          "type": "uint256"
        }
      ],
      "stateMutability": "view",
      "type": "function"
    },
    {
      "inputs": [],
      "name": "bigBoss",
      "outputs": [
        {
          "internalType": "string",
          "name": "name",
          "type": "string"
        },
        {
          "internalType": "string",
          "name": "imageURI",
          "type": "string"
        },
        {
          "internalType": "uint256",
          "name": "hp",
          "type": "uint256"
        },
        {
          "internalType": "uint256",
          "name": "maxHp",
          "type": "uint256"
        },
        {
          "internalType": "uint256",
          "name": "attackDamage",
          "type": "uint256"
        }
      ],
      "stateMutability": "view",
      "type": "function"
    },
    {
      "inputs": [],
      "name": "checkIfUserHasNFT",
      "outputs": [
        {
          "components": [
            {
              "internalType": "uint256",
              "name": "characterIndex",
              "type": "uint256"
            },
            {
              "internalType": "string",
              "name": "name",
              "type": "string"
            },
            {
              "internalType": "string",
              "name": "imageURI",
              "type": "string"
            },
            {
              "internalType": "uint256",
              "name": "hp",
              "type": "uint256"
            },
            {
              "internalType": "uint256",
              "name": "maxHp",
              "type": "uint256"
            },
            {
              "internalType": "uint256",
              "name": "attackDamage",
              "type": "uint256"
            }
          ],
          "internalType": "struct MyEpicGame.CharacterAttributes",
          "name": "",
          "type": "tuple"
        }
      ],
      "stateMutability": "view",
      "type": "function"
    },
    {
      "inputs": [],
      "name": "getAllDefaultCharacters",
      "outputs": [
        {
          "components": [
            {
              "internalType": "uint256",
              "name": "characterIndex",
              "type": "uint256"
            },
            {
              "internalType": "string",
              "name": "name",
              "type": "string"
            },
            {
              "internalType": "string",
              "name": "imageURI",
              "type": "string"
            },
            {
              "internalType": "uint256",
              "name": "hp",
              "type": "uint256"
            },
            {
              "internalType": "uint256",
              "name": "maxHp",
              "type": "uint256"
            },
            {
              "internalType": "uint256",
              "name": "attackDamage",
              "type": "uint256"
            }
          ],
          "internalType": "struct MyEpicGame.CharacterAttributes[]",
          "name": "",
          "type": "tuple[]"
        }
      ],
      "stateMutability": "view",
      "type": "function"
    },
    {
      "inputs": [
        {
          "internalType": "uint256",
          "name": "tokenId",
          "type": "uint256"
        }
      ],
      "name": "getApproved",
      "outputs": [
        {
          "internalType": "address",
          "name": "",
          "type": "address"
        }
      ],
      "stateMutability": "view",
      "type": "function"
    },
    {
      "inputs": [],
      "name": "getBigBoss",
      "outputs": [
        {
          "components": [
            {
              "internalType": "string",
              "name": "name",
              "type": "string"
            },
            {
              "internalType": "string",
              "name": "imageURI",
              "type": "string"
            },
            {
              "internalType": "uint256",
              "name": "hp",
              "type": "uint256"
            },
            {
              "internalType": "uint256",
              "name": "maxHp",
              "type": "uint256"
            },
            {
              "internalType": "uint256",
              "name": "attackDamage",
              "type": "uint256"
            }
          ],
          "internalType": "struct MyEpicGame.BigBoss",
          "name": "",
          "type": "tuple"
        }
      ],
      "stateMutability": "view",
      "type": "function"
    },
    {
      "inputs": [
        {
          "internalType": "address",
          "name": "owner",
          "type": "address"
        },
        {
          "internalType": "address",
          "name": "operator",
          "type": "address"
        }
      ],
      "name": "isApprovedForAll",
      "outputs": [
        {
          "internalType": "bool",
          "name": "",
          "type": "bool"
        }
      ],
      "stateMutability": "view",
      "type": "function"
    },
    {
      "inputs": [
        {
          "internalType": "uint256",
          "name": "_characterIndex",
          "type": "uint256"
        }
      ],
      "name": "mintCharacterNFT",
      "outputs": [],
      "stateMutability": "nonpayable",
      "type": "function"
    },
    {
      "inputs": [],
      "name": "name",
      "outputs": [
        {
          "internalType": "string",
          "name": "",
          "type": "string"
        }
      ],
      "stateMutability": "view",
      "type": "function"
    },
    {
      "inputs": [
        {
          "internalType": "uint256",
          "name": "",
          "type": "uint256"
        }
      ],
      "name": "nftHolderAttributes",
      "outputs": [
        {
          "internalType": "uint256",
          "name": "characterIndex",
          "type": "uint256"
        },
        {
          "internalType": "string",
          "name": "name",
          "type": "string"
        },
        {
          "internalType": "string",
          "name": "imageURI",
          "type": "string"
        },
        {
          "internalType": "uint256",
          "name": "hp",
          "type": "uint256"
        },
        {
          "internalType": "uint256",
          "name": "maxHp",
          "type": "uint256"
        },
        {
          "internalType": "uint256",
          "name": "attackDamage",
          "type": "uint256"
        }
      ],
      "stateMutability": "view",
      "type": "function"
    },
    {
      "inputs": [
        {
          "internalType": "address",
          "name": "",
          "type": "address"
        }
      ],
      "name": "nftHolders",
      "outputs": [
        {
          "internalType": "uint256",
          "name": "",
          "type": "uint256"
        }
      ],
      "stateMutability": "view",
      "type": "function"
    },
    {
      "inputs": [
        {
          "internalType": "uint256",
          "name": "tokenId",
          "type": "uint256"
        }
      ],
      "name": "ownerOf",
      "outputs": [
        {
          "internalType": "address",
          "name": "",
          "type": "address"
        }
      ],
      "stateMutability": "view",
      "type": "function"
    },
    {
      "inputs": [
        {
          "internalType": "address",
          "name": "from",
          "type": "address"
        },
        {
          "internalType": "address",
          "name": "to",
          "type": "address"
        },
        {
          "internalType": "uint256",
          "name": "tokenId",
          "type": "uint256"
        }
      ],
      "name": "safeTransferFrom",
      "outputs": [],
      "stateMutability": "nonpayable",
      "type": "function"
    },
    {
      "inputs": [
        {
          "internalType": "address",
          "name": "from",
          "type": "address"
        },
        {
          "internalType": "address",
          "name": "to",
          "type": "address"
        },
        {
          "internalType": "uint256",
          "name": "tokenId",
          "type": "uint256"
        },
        {
          "internalType": "bytes",
          "name": "data",
          "type": "bytes"
        }
      ],
      "name": "safeTransferFrom",
      "outputs": [],
      "stateMutability": "nonpayable",
      "type": "function"
    },
    {
      "inputs": [
        {
          "internalType": "address",
          "name": "operator",
          "type": "address"
        },
        {
          "internalType": "bool",
          "name": "approved",
          "type": "bool"
        }
      ],
      "name": "setApprovalForAll",
      "outputs": [],
      "stateMutability": "nonpayable",
      "type": "function"
    },
    {
      "inputs": [
        {
          "internalType": "bytes4",
          "name": "interfaceId",
          "type": "bytes4"
        }
      ],
      "name": "supportsInterface",
      "outputs": [
        {
          "internalType": "bool",
          "name": "",
          "type": "bool"
        }
      ],
      "stateMutability": "view",
      "type": "function"
    },
    {
      "inputs": [],
      "name": "symbol",
      "outputs": [
        {
          "internalType": "string",
          "name": "",
          "type": "string"
        }
      ],
      "stateMutability": "view",
      "type": "function"
    },
    {
      "inputs": [
        {
          "internalType": "uint256",
          "name": "_tokenId",
          "type": "uint256"
        }
      ],
      "name": "tokenURI",
      "outputs": [
        {
          "internalType": "string",
          "name": "",
          "type": "string"
        }
      ],
      "stateMutability": "view",
      "type": "function"
    },
    {
      "inputs": [
        {
          "internalType": "address",
          "name": "from",
          "type": "address"
        },
        {
          "internalType": "address",
          "name": "to",
          "type": "address"
        },
        {
          "internalType": "uint256",
          "name": "tokenId",
          "type": "uint256"
        }
      ],
      "name": "transferFrom",
      "outputs": [],
      "stateMutability": "nonpayable",
      "type": "function"
    }
  ],
  "bytecode": "0x60806040523480156200001157600080fd5b506040516200576038038062005760833981810160405281019062000037919062000a85565b6040518060400160405280600681526020017f4865726f657300000000000000000000000000000000000000000000000000008152506040518060400160405280600481526020017f4845524f000000000000000000000000000000000000000000000000000000008152508160009080519060200190620000bb929190620007ed565b508060019080519060200190620000d4929190620007ed565b5050506040518060a0016040528085815260200184815260200183815260200183815260200182815250600660008201518160000190805190602001906200011e929190620007ed565b5060208201518160010190805190602001906200013d929190620007ed565b50604082015181600201556060820151816003015560808201518160040155905050620002c06040518060600160405280603281526020016200572e60329139600660000180546200018f9062000e08565b80601f0160208091040260200160405190810160405280929190818152602001828054620001bd9062000e08565b80156200020e5780601f10620001e2576101008083540402835291602001916200020e565b820191906000526020600020905b815481529060010190602001808311620001f057829003601f168201915b5050505050600660020154600660010180546200022b9062000e08565b80601f0160208091040260200160405190810160405280929190818152602001828054620002599062000e08565b8015620002aa5780601f106200027e57610100808354040283529160200191620002aa565b820191906000526020600020905b8154815290600101906020018083116200028c57829003601f168201915b50505050506200070260201b62001b961760201c565b60005b8851811015620006dc57600c6040518060c001604052808381526020018b84815181106200031a577f4e487b7100000000000000000000000000000000000000000000000000000000600052603260045260246000fd5b602002602001015181526020018a848151811062000361577f4e487b7100000000000000000000000000000000000000000000000000000000600052603260045260246000fd5b60200260200101518152602001898481518110620003a8577f4e487b7100000000000000000000000000000000000000000000000000000000600052603260045260246000fd5b60200260200101518152602001898481518110620003ef577f4e487b7100000000000000000000000000000000000000000000000000000000600052603260045260246000fd5b6020026020010151815260200188848151811062000436577f4e487b7100000000000000000000000000000000000000000000000000000000600052603260045260246000fd5b6020026020010151815250908060018154018082558091505060019003906000526020600020906006020160009091909190915060008201518160000155602082015181600101908051906020019062000492929190620007ed565b506040820151816002019080519060200190620004b1929190620007ed565b50606082015181600301556080820151816004015560a0820151816005015550506000600c82815481106200050f577f4e487b7100000000000000000000000000000000000000000000000000000000600052603260045260246000fd5b90600052602060002090600602016040518060c001604052908160008201548152602001600182018054620005449062000e08565b80601f0160208091040260200160405190810160405280929190818152602001828054620005729062000e08565b8015620005c35780601f106200059757610100808354040283529160200191620005c3565b820191906000526020600020905b815481529060010190602001808311620005a557829003601f168201915b50505050508152602001600282018054620005de9062000e08565b80601f01602080910402602001604051908101604052809291908181526020018280546200060c9062000e08565b80156200065d5780601f1062000631576101008083540402835291602001916200065d565b820191906000526020600020905b8154815290600101906020018083116200063f57829003601f168201915b5050505050815260200160038201548152602001600482015481526020016005820154815250509050620006c4604051806060016040528060308152602001620056fe603091398260200151836060015184604001516200070260201b62001b961760201c565b50600181620006d4919062000d6b565b9050620002c3565b50620006f4600b620007ae60201b62001c381760201c565b505050505050505062000f2c565b620007a8848484846040516024016200071f949392919062000c30565b6040516020818303038152906040527f8d142cdd000000000000000000000000000000000000000000000000000000007bffffffffffffffffffffffffffffffffffffffffffffffffffffffff19166020820180517bffffffffffffffffffffffffffffffffffffffffffffffffffffffff8381831617835250505050620007c460201b60201c565b50505050565b6001816000016000828254019250508190555050565b60008151905060006a636f6e736f6c652e6c6f679050602083016000808483855afa5050505050565b828054620007fb9062000e08565b90600052602060002090601f0160209004810192826200081f57600085556200086b565b82601f106200083a57805160ff19168380011785556200086b565b828001600101855582156200086b579182015b828111156200086a5782518255916020019190600101906200084d565b5b5090506200087a91906200087e565b5090565b5b80821115620008995760008160009055506001016200087f565b5090565b6000620008b4620008ae8462000cbb565b62000c92565b90508083825260208201905082856020860282011115620008d457600080fd5b60005b858110156200092357815167ffffffffffffffff811115620008f857600080fd5b80860162000907898262000a41565b85526020850194506020840193505050600181019050620008d7565b5050509392505050565b6000620009446200093e8462000cea565b62000c92565b905080838252602082019050828560208602820111156200096457600080fd5b60005b858110156200099857816200097d888262000a6e565b84526020840193506020830192505060018101905062000967565b5050509392505050565b6000620009b9620009b38462000d19565b62000c92565b905082815260208101848484011115620009d257600080fd5b620009df84828562000dd2565b509392505050565b600082601f830112620009f957600080fd5b815162000a0b8482602086016200089d565b91505092915050565b600082601f83011262000a2657600080fd5b815162000a388482602086016200092d565b91505092915050565b600082601f83011262000a5357600080fd5b815162000a65848260208601620009a2565b91505092915050565b60008151905062000a7f8162000f12565b92915050565b600080600080600080600080610100898b03121562000aa357600080fd5b600089015167ffffffffffffffff81111562000abe57600080fd5b62000acc8b828c01620009e7565b985050602089015167ffffffffffffffff81111562000aea57600080fd5b62000af88b828c01620009e7565b975050604089015167ffffffffffffffff81111562000b1657600080fd5b62000b248b828c0162000a14565b965050606089015167ffffffffffffffff81111562000b4257600080fd5b62000b508b828c0162000a14565b955050608089015167ffffffffffffffff81111562000b6e57600080fd5b62000b7c8b828c0162000a41565b94505060a089015167ffffffffffffffff81111562000b9a57600080fd5b62000ba88b828c0162000a41565b93505060c062000bbb8b828c0162000a6e565b92505060e062000bce8b828c0162000a6e565b9150509295985092959890939650565b600062000beb8262000d4f565b62000bf7818562000d5a565b935062000c0981856020860162000dd2565b62000c148162000f01565b840191505092915050565b62000c2a8162000dc8565b82525050565b6000608082019050818103600083015262000c4c818762000bde565b9050818103602083015262000c62818662000bde565b905062000c73604083018562000c1f565b818103606083015262000c87818462000bde565b905095945050505050565b600062000c9e62000cb1565b905062000cac828262000e3e565b919050565b6000604051905090565b600067ffffffffffffffff82111562000cd95762000cd862000ed2565b5b602082029050602081019050919050565b600067ffffffffffffffff82111562000d085762000d0762000ed2565b5b602082029050602081019050919050565b600067ffffffffffffffff82111562000d375762000d3662000ed2565b5b62000d428262000f01565b9050602081019050919050565b600081519050919050565b600082825260208201905092915050565b600062000d788262000dc8565b915062000d858362000dc8565b9250827fffffffffffffffffffffffffffffffffffffffffffffffffffffffffffffffff0382111562000dbd5762000dbc62000e74565b5b828201905092915050565b6000819050919050565b60005b8381101562000df257808201518184015260208101905062000dd5565b8381111562000e02576000848401525b50505050565b6000600282049050600182168062000e2157607f821691505b6020821081141562000e385762000e3762000ea3565b5b50919050565b62000e498262000f01565b810181811067ffffffffffffffff8211171562000e6b5762000e6a62000ed2565b5b80604052505050565b7f4e487b7100000000000000000000000000000000000000000000000000000000600052601160045260246000fd5b7f4e487b7100000000000000000000000000000000000000000000000000000000600052602260045260246000fd5b7f4e487b7100000000000000000000000000000000000000000000000000000000600052604160045260246000fd5b6000601f19601f8301169050919050565b62000f1d8162000dc8565b811462000f2957600080fd5b50565b6147c28062000f3c6000396000f3fe608060405234801561001057600080fd5b50600436106101375760003560e01c806395d89b41116100b8578063b953084e1161007c578063b953084e14610369578063c87b56dd14610387578063c8cf27f4146103b7578063d4f24c5b146103d5578063e985e9c5146103df578063f8b81ef71461040f57610137565b806395d89b41146102bc57806398da4c95146102da578063a22cb4651461030f578063a9c326791461032b578063b88d4fde1461034d57610137565b806323b872dd116100ff57806323b872dd146101f457806342842e0e146102105780636352211e1461022c57806370a082311461025c5780637df124a11461028c57610137565b806301ffc9a71461013c5780630665f9611461016c57806306fdde031461018a578063081812fc146101a8578063095ea7b3146101d8575b600080fd5b6101566004803603810190610151919061300b565b61042b565b604051610163919061382a565b60405180910390f35b61017461050d565b6040516101819190613b83565b60405180910390f35b610192610669565b60405161019f9190613845565b60405180910390f35b6101c260048036038101906101bd919061305d565b6106fb565b6040516101cf919061376a565b60405180910390f35b6101f260048036038101906101ed9190612fcf565b610741565b005b61020e60048036038101906102099190612ec9565b610859565b005b61022a60048036038101906102259190612ec9565b6108b9565b005b6102466004803603810190610241919061305d565b6108d9565b604051610253919061376a565b60405180910390f35b61027660048036038101906102719190612e64565b61098b565b6040516102839190613bc7565b60405180910390f35b6102a660048036038101906102a19190612e64565b610a43565b6040516102b39190613bc7565b60405180910390f35b6102c4610a5b565b6040516102d19190613845565b60405180910390f35b6102f460048036038101906102ef919061305d565b610aed565b60405161030696959493929190613be2565b60405180910390f35b61032960048036038101906103249190612f93565b610c39565b005b610333610c4f565b604051610344959493929190613914565b60405180910390f35b61036760048036038101906103629190612f18565b610d83565b005b610371610de5565b60405161037e9190613808565b60405180910390f35b6103a1600480360381019061039c919061305d565b610f90565b6040516103ae9190613845565b60405180910390f35b6103bf6111ab565b6040516103cc9190613ba5565b60405180910390f35b6103dd611383565b005b6103f960048036038101906103f49190612e8d565b61170e565b604051610406919061382a565b60405180910390f35b6104296004803603810190610424919061305d565b6117a2565b005b60007f80ac58cd000000000000000000000000000000000000000000000000000000007bffffffffffffffffffffffffffffffffffffffffffffffffffffffff1916827bffffffffffffffffffffffffffffffffffffffffffffffffffffffff191614806104f657507f5b5e139f000000000000000000000000000000000000000000000000000000007bffffffffffffffffffffffffffffffffffffffffffffffffffffffff1916827bffffffffffffffffffffffffffffffffffffffffffffffffffffffff1916145b80610506575061050582611c4e565b5b9050919050565b610515612c8b565b60066040518060a001604052908160008201805461053290613f28565b80601f016020809104026020016040519081016040528092919081815260200182805461055e90613f28565b80156105ab5780601f10610580576101008083540402835291602001916105ab565b820191906000526020600020905b81548152906001019060200180831161058e57829003601f168201915b505050505081526020016001820180546105c490613f28565b80601f01602080910402602001604051908101604052809291908181526020018280546105f090613f28565b801561063d5780601f106106125761010080835404028352916020019161063d565b820191906000526020600020905b81548152906001019060200180831161062057829003601f168201915b505050505081526020016002820154815260200160038201548152602001600482015481525050905090565b60606000805461067890613f28565b80601f01602080910402602001604051908101604052809291908181526020018280546106a490613f28565b80156106f15780601f106106c6576101008083540402835291602001916106f1565b820191906000526020600020905b8154815290600101906020018083116106d457829003601f168201915b5050505050905090565b600061070682611cb8565b6004600083815260200190815260200160002060009054906101000a900473ffffffffffffffffffffffffffffffffffffffff169050919050565b600061074c826108d9565b90508073ffffffffffffffffffffffffffffffffffffffff168373ffffffffffffffffffffffffffffffffffffffff1614156107bd576040517f08c379a00000000000000000000000000000000000000000000000000000000081526004016107b490613b43565b60405180910390fd5b8073ffffffffffffffffffffffffffffffffffffffff166107dc611d03565b73ffffffffffffffffffffffffffffffffffffffff16148061080b575061080a81610805611d03565b61170e565b5b61084a576040517f08c379a000000000000000000000000000000000000000000000000000000000815260040161084190613ae3565b60405180910390fd5b6108548383611d0b565b505050565b61086a610864611d03565b82611dc4565b6108a9576040517f08c379a00000000000000000000000000000000000000000000000000000000081526004016108a090613b63565b60405180910390fd5b6108b4838383611e59565b505050565b6108d483838360405180602001604052806000815250610d83565b505050565b6000806002600084815260200190815260200160002060009054906101000a900473ffffffffffffffffffffffffffffffffffffffff169050600073ffffffffffffffffffffffffffffffffffffffff168173ffffffffffffffffffffffffffffffffffffffff161415610982576040517f08c379a000000000000000000000000000000000000000000000000000000000815260040161097990613b23565b60405180910390fd5b80915050919050565b60008073ffffffffffffffffffffffffffffffffffffffff168273ffffffffffffffffffffffffffffffffffffffff1614156109fc576040517f08c379a00000000000000000000000000000000000000000000000000000000081526004016109f390613aa3565b60405180910390fd5b600360008373ffffffffffffffffffffffffffffffffffffffff1673ffffffffffffffffffffffffffffffffffffffff168152602001908152602001600020549050919050565b600e6020528060005260406000206000915090505481565b606060018054610a6a90613f28565b80601f0160208091040260200160405190810160405280929190818152602001828054610a9690613f28565b8015610ae35780601f10610ab857610100808354040283529160200191610ae3565b820191906000526020600020905b815481529060010190602001808311610ac657829003601f168201915b5050505050905090565b600d602052806000526040600020600091509050806000015490806001018054610b1690613f28565b80601f0160208091040260200160405190810160405280929190818152602001828054610b4290613f28565b8015610b8f5780601f10610b6457610100808354040283529160200191610b8f565b820191906000526020600020905b815481529060010190602001808311610b7257829003601f168201915b505050505090806002018054610ba490613f28565b80601f0160208091040260200160405190810160405280929190818152602001828054610bd090613f28565b8015610c1d5780601f10610bf257610100808354040283529160200191610c1d565b820191906000526020600020905b815481529060010190602001808311610c0057829003601f168201915b5050505050908060030154908060040154908060050154905086565b610c4b610c44611d03565b83836120c0565b5050565b6006806000018054610c6090613f28565b80601f0160208091040260200160405190810160405280929190818152602001828054610c8c90613f28565b8015610cd95780601f10610cae57610100808354040283529160200191610cd9565b820191906000526020600020905b815481529060010190602001808311610cbc57829003601f168201915b505050505090806001018054610cee90613f28565b80601f0160208091040260200160405190810160405280929190818152602001828054610d1a90613f28565b8015610d675780601f10610d3c57610100808354040283529160200191610d67565b820191906000526020600020905b815481529060010190602001808311610d4a57829003601f168201915b5050505050908060020154908060030154908060040154905085565b610d94610d8e611d03565b83611dc4565b610dd3576040517f08c379a0000000000000000000000000000000000000000000000000000000008152600401610dca90613b63565b60405180910390fd5b610ddf8484848461222d565b50505050565b6060600c805480602002602001604051908101604052809291908181526020016000905b82821015610f8757838290600052602060002090600602016040518060c001604052908160008201548152602001600182018054610e4690613f28565b80601f0160208091040260200160405190810160405280929190818152602001828054610e7290613f28565b8015610ebf5780601f10610e9457610100808354040283529160200191610ebf565b820191906000526020600020905b815481529060010190602001808311610ea257829003601f168201915b50505050508152602001600282018054610ed890613f28565b80601f0160208091040260200160405190810160405280929190818152602001828054610f0490613f28565b8015610f515780601f10610f2657610100808354040283529160200191610f51565b820191906000526020600020905b815481529060010190602001808311610f3457829003601f168201915b50505050508152602001600382015481526020016004820154815260200160058201548152505081526020019060010190610e09565b50505050905090565b60606000600d60008481526020019081526020016000206040518060c001604052908160008201548152602001600182018054610fcc90613f28565b80601f0160208091040260200160405190810160405280929190818152602001828054610ff890613f28565b80156110455780601f1061101a57610100808354040283529160200191611045565b820191906000526020600020905b81548152906001019060200180831161102857829003601f168201915b5050505050815260200160028201805461105e90613f28565b80601f016020809104026020016040519081016040528092919081815260200182805461108a90613f28565b80156110d75780601f106110ac576101008083540402835291602001916110d7565b820191906000526020600020905b8154815290600101906020018083116110ba57829003601f168201915b5050505050815260200160038201548152602001600482015481526020016005820154815250509050600061110f8260600151612289565b905060006111208360800151612289565b905060006111318460a00151612289565b90506000611177856020015161114689612289565b8760400151878787604051602001611163969594939291906136a3565b604051602081830303815290604052612436565b905060008160405160200161118c9190613748565b6040516020818303038152906040529050809650505050505050919050565b6111b3612cba565b6000600e60003373ffffffffffffffffffffffffffffffffffffffff1673ffffffffffffffffffffffffffffffffffffffff168152602001908152602001600020549050600081111561137257600d60008281526020019081526020016000206040518060c00160405290816000820154815260200160018201805461123890613f28565b80601f016020809104026020016040519081016040528092919081815260200182805461126490613f28565b80156112b15780601f10611286576101008083540402835291602001916112b1565b820191906000526020600020905b81548152906001019060200180831161129457829003601f168201915b505050505081526020016002820180546112ca90613f28565b80601f01602080910402602001604051908101604052809291908181526020018280546112f690613f28565b80156113435780601f1061131857610100808354040283529160200191611343565b820191906000526020600020905b81548152906001019060200180831161132657829003601f168201915b505050505081526020016003820154815260200160048201548152602001600582015481525050915050611380565b61137a612cba565b80925050505b90565b6000600e60003373ffffffffffffffffffffffffffffffffffffffff1673ffffffffffffffffffffffffffffffffffffffff1681526020019081526020016000205490506000600d600083815260200190815260200160002090506114966040518060800160405280604b8152602001614716604b913982600101805461140990613f28565b80601f016020809104026020016040519081016040528092919081815260200182805461143590613f28565b80156114825780601f1061145757610100808354040283529160200191611482565b820191906000526020600020905b81548152906001019060200180831161146557829003601f168201915b5050505050836003015484600501546125f4565b61156e6040518060400160405280601f81526020017f426f73732025732074656d202573206465204850206520257320646520504100815250600660000180546114df90613f28565b80601f016020809104026020016040519081016040528092919081815260200182805461150b90613f28565b80156115585780601f1061152d57610100808354040283529160200191611558565b820191906000526020600020905b81548152906001019060200180831161153b57829003601f168201915b50505050506006600201546006600401546125f4565b60008160030154116115b5576040517f08c379a00000000000000000000000000000000000000000000000000000000081526004016115ac90613ac3565b60405180910390fd5b6000600660020154116115fd576040517f08c379a00000000000000000000000000000000000000000000000000000000081526004016115f490613a23565b60405180910390fd5b8060050154600660020154101561161e57600060066002018190555061163d565b80600501546006600201546116339190613e3e565b6006600201819055505b6006600401548160030154101561165d576000816003018190555061167b565b60066004015481600301546116729190613e3e565b81600301819055505b6116a26040518060600160405280602c81526020016146aa602c9139600660020154612696565b6116c860405180606001604052806030815260200161467a603091398260030154612696565b7f838ab28464562786a6c4ab2311964b82fa60bd9b14aa7e856af1f3f18d41a4146006600201548260030154604051611702929190613c51565b60405180910390a15050565b6000600560008473ffffffffffffffffffffffffffffffffffffffff1673ffffffffffffffffffffffffffffffffffffffff16815260200190815260200160002060008373ffffffffffffffffffffffffffffffffffffffff1673ffffffffffffffffffffffffffffffffffffffff16815260200190815260200160002060009054906101000a900460ff16905092915050565b60006117ae600b612732565b90506117ba3382612740565b6040518060c00160405280838152602001600c8481548110611805577f4e487b7100000000000000000000000000000000000000000000000000000000600052603260045260246000fd5b9060005260206000209060060201600101805461182190613f28565b80601f016020809104026020016040519081016040528092919081815260200182805461184d90613f28565b801561189a5780601f1061186f5761010080835404028352916020019161189a565b820191906000526020600020905b81548152906001019060200180831161187d57829003601f168201915b50505050508152602001600c84815481106118de577f4e487b7100000000000000000000000000000000000000000000000000000000600052603260045260246000fd5b906000526020600020906006020160020180546118fa90613f28565b80601f016020809104026020016040519081016040528092919081815260200182805461192690613f28565b80156119735780601f1061194857610100808354040283529160200191611973565b820191906000526020600020905b81548152906001019060200180831161195657829003601f168201915b50505050508152602001600c84815481106119b7577f4e487b7100000000000000000000000000000000000000000000000000000000600052603260045260246000fd5b9060005260206000209060060201600301548152602001600c8481548110611a08577f4e487b7100000000000000000000000000000000000000000000000000000000600052603260045260246000fd5b9060005260206000209060060201600401548152602001600c8481548110611a59577f4e487b7100000000000000000000000000000000000000000000000000000000600052603260045260246000fd5b906000526020600020906006020160050154815250600d6000838152602001908152602001600020600082015181600001556020820151816001019080519060200190611aa7929190612cf0565b506040820151816002019080519060200190611ac4929190612cf0565b50606082015181600301556080820151816004015560a08201518160050155905050611b096040518060600160405280602c8152602001614761602c9139828461275e565b80600e60003373ffffffffffffffffffffffffffffffffffffffff1673ffffffffffffffffffffffffffffffffffffffff16815260200190815260200160002081905550611b57600b611c38565b7f4bc303fd457a97b4691b9af582ce71868a3d258638c8d4f8c60988a0f0bfb8cd338284604051611b8a939291906137d1565b60405180910390a15050565b611c3284848484604051602401611bb09493929190613867565b6040516020818303038152906040527f8d142cdd000000000000000000000000000000000000000000000000000000007bffffffffffffffffffffffffffffffffffffffffffffffffffffffff19166020820180517bffffffffffffffffffffffffffffffffffffffffffffffffffffffff83818316178352505050506127fd565b50505050565b6001816000016000828254019250508190555050565b60007f01ffc9a7000000000000000000000000000000000000000000000000000000007bffffffffffffffffffffffffffffffffffffffffffffffffffffffff1916827bffffffffffffffffffffffffffffffffffffffffffffffffffffffff1916149050919050565b611cc181612826565b611d00576040517f08c379a0000000000000000000000000000000000000000000000000000000008152600401611cf790613b23565b60405180910390fd5b50565b600033905090565b816004600083815260200190815260200160002060006101000a81548173ffffffffffffffffffffffffffffffffffffffff021916908373ffffffffffffffffffffffffffffffffffffffff160217905550808273ffffffffffffffffffffffffffffffffffffffff16611d7e836108d9565b73ffffffffffffffffffffffffffffffffffffffff167f8c5be1e5ebec7d5bd14f71427d1e84f3dd0314c0f7b2291e5b200ac8c7c3b92560405160405180910390a45050565b600080611dd0836108d9565b90508073ffffffffffffffffffffffffffffffffffffffff168473ffffffffffffffffffffffffffffffffffffffff161480611e125750611e11818561170e565b5b80611e5057508373ffffffffffffffffffffffffffffffffffffffff16611e38846106fb565b73ffffffffffffffffffffffffffffffffffffffff16145b91505092915050565b8273ffffffffffffffffffffffffffffffffffffffff16611e79826108d9565b73ffffffffffffffffffffffffffffffffffffffff1614611ecf576040517f08c379a0000000000000000000000000000000000000000000000000000000008152600401611ec690613a03565b60405180910390fd5b600073ffffffffffffffffffffffffffffffffffffffff168273ffffffffffffffffffffffffffffffffffffffff161415611f3f576040517f08c379a0000000000000000000000000000000000000000000000000000000008152600401611f3690613a63565b60405180910390fd5b611f4a838383612892565b611f55600082611d0b565b6001600360008573ffffffffffffffffffffffffffffffffffffffff1673ffffffffffffffffffffffffffffffffffffffff1681526020019081526020016000206000828254611fa59190613e3e565b925050819055506001600360008473ffffffffffffffffffffffffffffffffffffffff1673ffffffffffffffffffffffffffffffffffffffff1681526020019081526020016000206000828254611ffc9190613d5d565b92505081905550816002600083815260200190815260200160002060006101000a81548173ffffffffffffffffffffffffffffffffffffffff021916908373ffffffffffffffffffffffffffffffffffffffff160217905550808273ffffffffffffffffffffffffffffffffffffffff168473ffffffffffffffffffffffffffffffffffffffff167fddf252ad1be2c89b69c2b068fc378daa952ba7f163c4a11628f55a4df523b3ef60405160405180910390a46120bb838383612897565b505050565b8173ffffffffffffffffffffffffffffffffffffffff168373ffffffffffffffffffffffffffffffffffffffff16141561212f576040517f08c379a000000000000000000000000000000000000000000000000000000000815260040161212690613a83565b60405180910390fd5b80600560008573ffffffffffffffffffffffffffffffffffffffff1673ffffffffffffffffffffffffffffffffffffffff16815260200190815260200160002060008473ffffffffffffffffffffffffffffffffffffffff1673ffffffffffffffffffffffffffffffffffffffff16815260200190815260200160002060006101000a81548160ff0219169083151502179055508173ffffffffffffffffffffffffffffffffffffffff168373ffffffffffffffffffffffffffffffffffffffff167f17307eab39ab6107e8899845ad3d59bd9653f200f220920489ca2b5937696c3183604051612220919061382a565b60405180910390a3505050565b612238848484611e59565b6122448484848461289c565b612283576040517f08c379a000000000000000000000000000000000000000000000000000000000815260040161227a906139e3565b60405180910390fd5b50505050565b606060008214156122d1576040518060400160405280600181526020017f30000000000000000000000000000000000000000000000000000000000000008152509050612431565b600082905060005b600082146123035780806122ec90613f8b565b915050600a826122fc9190613db3565b91506122d9565b60008167ffffffffffffffff811115612345577f4e487b7100000000000000000000000000000000000000000000000000000000600052604160045260246000fd5b6040519080825280601f01601f1916602001820160405280156123775781602001600182028036833780820191505090505b5090505b6000851461242a576001826123909190613e3e565b9150600a8561239f9190613fd4565b60306123ab9190613d5d565b60f81b8183815181106123e7577f4e487b7100000000000000000000000000000000000000000000000000000000600052603260045260246000fd5b60200101907effffffffffffffffffffffffffffffffffffffffffffffffffffffffffffff1916908160001a905350600a856124239190613db3565b945061237b565b8093505050505b919050565b6060600082519050600081141561245f57604051806020016040528060008152509150506125ef565b600060036002836124709190613d5d565b61247a9190613db3565b60046124869190613de4565b905060006020826124979190613d5d565b67ffffffffffffffff8111156124d6577f4e487b7100000000000000000000000000000000000000000000000000000000600052604160045260246000fd5b6040519080825280601f01601f1916602001820160405280156125085781602001600182028036833780820191505090505b50905060006040518060600160405280604081526020016146d6604091399050600181016020830160005b868110156125ac5760038101905062ffffff818a015116603f8160121c168401518060081b905060ff603f83600c1c1686015116810190508060081b905060ff603f8360061c1686015116810190508060081b905060ff603f831686015116810190508060e01b90508084526004840193505050612533565b5060038606600181146125c657600281146125d6576125e1565b613d3d60f01b60028303526125e1565b603d60f81b60018303525b508484525050819450505050505b919050565b6126908484848460405160240161260e94939291906138c1565b6040516020818303038152906040527fd5cf17d0000000000000000000000000000000000000000000000000000000007bffffffffffffffffffffffffffffffffffffffffffffffffffffffff19166020820180517bffffffffffffffffffffffffffffffffffffffffffffffffffffffff83818316178352505050506127fd565b50505050565b61272e82826040516024016126ac929190613975565b6040516020818303038152906040527f9710a9d0000000000000000000000000000000000000000000000000000000007bffffffffffffffffffffffffffffffffffffffffffffffffffffffff19166020820180517bffffffffffffffffffffffffffffffffffffffffffffffffffffffff83818316178352505050506127fd565b5050565b600081600001549050919050565b61275a828260405180602001604052806000815250612a33565b5050565b6127f8838383604051602401612776939291906139a5565b6040516020818303038152906040527f969cdd03000000000000000000000000000000000000000000000000000000007bffffffffffffffffffffffffffffffffffffffffffffffffffffffff19166020820180517bffffffffffffffffffffffffffffffffffffffffffffffffffffffff83818316178352505050506127fd565b505050565b60008151905060006a636f6e736f6c652e6c6f679050602083016000808483855afa5050505050565b60008073ffffffffffffffffffffffffffffffffffffffff166002600084815260200190815260200160002060009054906101000a900473ffffffffffffffffffffffffffffffffffffffff1673ffffffffffffffffffffffffffffffffffffffff1614159050919050565b505050565b505050565b60006128bd8473ffffffffffffffffffffffffffffffffffffffff16612a8e565b15612a26578373ffffffffffffffffffffffffffffffffffffffff1663150b7a026128e6611d03565b8786866040518563ffffffff1660e01b81526004016129089493929190613785565b602060405180830381600087803b15801561292257600080fd5b505af192505050801561295357506040513d601f19601f820116820180604052508101906129509190613034565b60015b6129d6573d8060008114612983576040519150601f19603f3d011682016040523d82523d6000602084013e612988565b606091505b506000815114156129ce576040517f08c379a00000000000000000000000000000000000000000000000000000000081526004016129c5906139e3565b60405180910390fd5b805181602001fd5b63150b7a0260e01b7bffffffffffffffffffffffffffffffffffffffffffffffffffffffff1916817bffffffffffffffffffffffffffffffffffffffffffffffffffffffff191614915050612a2b565b600190505b949350505050565b612a3d8383612ab1565b612a4a600084848461289c565b612a89576040517f08c379a0000000000000000000000000000000000000000000000000000000008152600401612a80906139e3565b60405180910390fd5b505050565b6000808273ffffffffffffffffffffffffffffffffffffffff163b119050919050565b600073ffffffffffffffffffffffffffffffffffffffff168273ffffffffffffffffffffffffffffffffffffffff161415612b21576040517f08c379a0000000000000000000000000000000000000000000000000000000008152600401612b1890613b03565b60405180910390fd5b612b2a81612826565b15612b6a576040517f08c379a0000000000000000000000000000000000000000000000000000000008152600401612b6190613a43565b60405180910390fd5b612b7660008383612892565b6001600360008473ffffffffffffffffffffffffffffffffffffffff1673ffffffffffffffffffffffffffffffffffffffff1681526020019081526020016000206000828254612bc69190613d5d565b92505081905550816002600083815260200190815260200160002060006101000a81548173ffffffffffffffffffffffffffffffffffffffff021916908373ffffffffffffffffffffffffffffffffffffffff160217905550808273ffffffffffffffffffffffffffffffffffffffff16600073ffffffffffffffffffffffffffffffffffffffff167fddf252ad1be2c89b69c2b068fc378daa952ba7f163c4a11628f55a4df523b3ef60405160405180910390a4612c8760008383612897565b5050565b6040518060a0016040528060608152602001606081526020016000815260200160008152602001600081525090565b6040518060c001604052806000815260200160608152602001606081526020016000815260200160008152602001600081525090565b828054612cfc90613f28565b90600052602060002090601f016020900481019282612d1e5760008555612d65565b82601f10612d3757805160ff1916838001178555612d65565b82800160010185558215612d65579182015b82811115612d64578251825591602001919060010190612d49565b5b509050612d729190612d76565b5090565b5b80821115612d8f576000816000905550600101612d77565b5090565b6000612da6612da184613c9f565b613c7a565b905082815260208101848484011115612dbe57600080fd5b612dc9848285613ee6565b509392505050565b600081359050612de08161461d565b92915050565b600081359050612df581614634565b92915050565b600081359050612e0a8161464b565b92915050565b600081519050612e1f8161464b565b92915050565b600082601f830112612e3657600080fd5b8135612e46848260208601612d93565b91505092915050565b600081359050612e5e81614662565b92915050565b600060208284031215612e7657600080fd5b6000612e8484828501612dd1565b91505092915050565b60008060408385031215612ea057600080fd5b6000612eae85828601612dd1565b9250506020612ebf85828601612dd1565b9150509250929050565b600080600060608486031215612ede57600080fd5b6000612eec86828701612dd1565b9350506020612efd86828701612dd1565b9250506040612f0e86828701612e4f565b9150509250925092565b60008060008060808587031215612f2e57600080fd5b6000612f3c87828801612dd1565b9450506020612f4d87828801612dd1565b9350506040612f5e87828801612e4f565b925050606085013567ffffffffffffffff811115612f7b57600080fd5b612f8787828801612e25565b91505092959194509250565b60008060408385031215612fa657600080fd5b6000612fb485828601612dd1565b9250506020612fc585828601612de6565b9150509250929050565b60008060408385031215612fe257600080fd5b6000612ff085828601612dd1565b925050602061300185828601612e4f565b9150509250929050565b60006020828403121561301d57600080fd5b600061302b84828501612dfb565b91505092915050565b60006020828403121561304657600080fd5b600061305484828501612e10565b91505092915050565b60006020828403121561306f57600080fd5b600061307d84828501612e4f565b91505092915050565b60006130928383613565565b905092915050565b6130a381613e72565b82525050565b60006130b482613ce0565b6130be8185613d0e565b9350836020820285016130d085613cd0565b8060005b8581101561310c57848403895281516130ed8582613086565b94506130f883613d01565b925060208a019950506001810190506130d4565b50829750879550505050505092915050565b61312781613e84565b82525050565b600061313882613ceb565b6131428185613d1f565b9350613152818560208601613ef5565b61315b816140c1565b840191505092915050565b600061317182613cf6565b61317b8185613d30565b935061318b818560208601613ef5565b613194816140c1565b840191505092915050565b60006131aa82613cf6565b6131b48185613d41565b93506131c4818560208601613ef5565b6131cd816140c1565b840191505092915050565b60006131e382613cf6565b6131ed8185613d52565b93506131fd818560208601613ef5565b80840191505092915050565b6000613216600b83613d52565b9150613221826140d2565b600b82019050919050565b6000613239603283613d41565b9150613244826140fb565b604082019050919050565b600061325c602583613d41565b91506132678261414a565b604082019050919050565b600061327f602883613d41565b915061328a82614199565b604082019050919050565b60006132a2601c83613d41565b91506132ad826141e8565b602082019050919050565b60006132c5600e83613d52565b91506132d082614211565b600e82019050919050565b60006132e8602483613d41565b91506132f38261423a565b604082019050919050565b600061330b601983613d41565b915061331682614289565b602082019050919050565b600061332e602983613d41565b9150613339826142b2565b604082019050919050565b6000613351602d83613d41565b915061335c82614301565b604082019050919050565b6000613374600483613d52565b915061337f82614350565b600482019050919050565b6000613397603e83613d41565b91506133a282614379565b604082019050919050565b60006133ba602083613d41565b91506133c5826143c8565b602082019050919050565b60006133dd600a83613d52565b91506133e8826143f1565b600a82019050919050565b6000613400601883613d41565b915061340b8261441a565b602082019050919050565b6000613423602183613d41565b915061342e82614443565b604082019050919050565b6000613446601d83613d52565b915061345182614492565b601d82019050919050565b6000613469604383613d52565b9150613474826144bb565b604382019050919050565b600061348c603d83613d52565b915061349782614530565b603d82019050919050565b60006134af602d83613d52565b91506134ba8261457f565b602d82019050919050565b60006134d2602e83613d41565b91506134dd826145ce565b604082019050919050565b600060a08301600083015184820360008601526135058282613166565b9150506020830151848203602086015261351f8282613166565b91505060408301516135346040860182613685565b5060608301516135476060860182613685565b50608083015161355a6080860182613685565b508091505092915050565b600060c08301600083015161357d6000860182613685565b50602083015184820360208601526135958282613166565b915050604083015184820360408601526135af8282613166565b91505060608301516135c46060860182613685565b5060808301516135d76080860182613685565b5060a08301516135ea60a0860182613685565b508091505092915050565b600060c08301600083015161360d6000860182613685565b50602083015184820360208601526136258282613166565b9150506040830151848203604086015261363f8282613166565b91505060608301516136546060860182613685565b5060808301516136676080860182613685565b5060a083015161367a60a0860182613685565b508091505092915050565b61368e81613edc565b82525050565b61369d81613edc565b82525050565b60006136ae826133d0565b91506136ba82896131d8565b91506136c582613209565b91506136d182886131d8565b91506136dc8261345c565b91506136e882876131d8565b91506136f38261347f565b91506136ff82866131d8565b915061370a826132b8565b915061371682856131d8565b9150613721826134a2565b915061372d82846131d8565b915061373882613367565b9150819050979650505050505050565b600061375382613439565b915061375f82846131d8565b915081905092915050565b600060208201905061377f600083018461309a565b92915050565b600060808201905061379a600083018761309a565b6137a7602083018661309a565b6137b46040830185613694565b81810360608301526137c6818461312d565b905095945050505050565b60006060820190506137e6600083018661309a565b6137f36020830185613694565b6138006040830184613694565b949350505050565b6000602082019050818103600083015261382281846130a9565b905092915050565b600060208201905061383f600083018461311e565b92915050565b6000602082019050818103600083015261385f818461319f565b905092915050565b60006080820190508181036000830152613881818761319f565b90508181036020830152613895818661319f565b90506138a46040830185613694565b81810360608301526138b6818461319f565b905095945050505050565b600060808201905081810360008301526138db818761319f565b905081810360208301526138ef818661319f565b90506138fe6040830185613694565b61390b6060830184613694565b95945050505050565b600060a082019050818103600083015261392e818861319f565b90508181036020830152613942818761319f565b90506139516040830186613694565b61395e6060830185613694565b61396b6080830184613694565b9695505050505050565b6000604082019050818103600083015261398f818561319f565b905061399e6020830184613694565b9392505050565b600060608201905081810360008301526139bf818661319f565b90506139ce6020830185613694565b6139db6040830184613694565b949350505050565b600060208201905081810360008301526139fc8161322c565b9050919050565b60006020820190508181036000830152613a1c8161324f565b9050919050565b60006020820190508181036000830152613a3c81613272565b9050919050565b60006020820190508181036000830152613a5c81613295565b9050919050565b60006020820190508181036000830152613a7c816132db565b9050919050565b60006020820190508181036000830152613a9c816132fe565b9050919050565b60006020820190508181036000830152613abc81613321565b9050919050565b60006020820190508181036000830152613adc81613344565b9050919050565b60006020820190508181036000830152613afc8161338a565b9050919050565b60006020820190508181036000830152613b1c816133ad565b9050919050565b60006020820190508181036000830152613b3c816133f3565b9050919050565b60006020820190508181036000830152613b5c81613416565b9050919050565b60006020820190508181036000830152613b7c816134c5565b9050919050565b60006020820190508181036000830152613b9d81846134e8565b905092915050565b60006020820190508181036000830152613bbf81846135f5565b905092915050565b6000602082019050613bdc6000830184613694565b92915050565b600060c082019050613bf76000830189613694565b8181036020830152613c09818861319f565b90508181036040830152613c1d818761319f565b9050613c2c6060830186613694565b613c396080830185613694565b613c4660a0830184613694565b979650505050505050565b6000604082019050613c666000830185613694565b613c736020830184613694565b9392505050565b6000613c84613c95565b9050613c908282613f5a565b919050565b6000604051905090565b600067ffffffffffffffff821115613cba57613cb9614092565b5b613cc3826140c1565b9050602081019050919050565b6000819050602082019050919050565b600081519050919050565b600081519050919050565b600081519050919050565b6000602082019050919050565b600082825260208201905092915050565b600082825260208201905092915050565b600082825260208201905092915050565b600082825260208201905092915050565b600081905092915050565b6000613d6882613edc565b9150613d7383613edc565b9250827fffffffffffffffffffffffffffffffffffffffffffffffffffffffffffffffff03821115613da857613da7614005565b5b828201905092915050565b6000613dbe82613edc565b9150613dc983613edc565b925082613dd957613dd8614034565b5b828204905092915050565b6000613def82613edc565b9150613dfa83613edc565b9250817fffffffffffffffffffffffffffffffffffffffffffffffffffffffffffffffff0483118215151615613e3357613e32614005565b5b828202905092915050565b6000613e4982613edc565b9150613e5483613edc565b925082821015613e6757613e66614005565b5b828203905092915050565b6000613e7d82613ebc565b9050919050565b60008115159050919050565b60007fffffffff0000000000000000000000000000000000000000000000000000000082169050919050565b600073ffffffffffffffffffffffffffffffffffffffff82169050919050565b6000819050919050565b82818337600083830152505050565b60005b83811015613f13578082015181840152602081019050613ef8565b83811115613f22576000848401525b50505050565b60006002820490506001821680613f4057607f821691505b60208210811415613f5457613f53614063565b5b50919050565b613f63826140c1565b810181811067ffffffffffffffff82111715613f8257613f81614092565b5b80604052505050565b6000613f9682613edc565b91507fffffffffffffffffffffffffffffffffffffffffffffffffffffffffffffffff821415613fc957613fc8614005565b5b600182019050919050565b6000613fdf82613edc565b9150613fea83613edc565b925082613ffa57613ff9614034565b5b828206905092915050565b7f4e487b7100000000000000000000000000000000000000000000000000000000600052601160045260246000fd5b7f4e487b7100000000000000000000000000000000000000000000000000000000600052601260045260246000fd5b7f4e487b7100000000000000000000000000000000000000000000000000000000600052602260045260246000fd5b7f4e487b7100000000000000000000000000000000000000000000000000000000600052604160045260246000fd5b6000601f19601f8301169050919050565b7f202d2d204e465420233a20000000000000000000000000000000000000000000600082015250565b7f4552433732313a207472616e7366657220746f206e6f6e20455243373231526560008201527f63656976657220696d706c656d656e7465720000000000000000000000000000602082015250565b7f4552433732313a207472616e736665722066726f6d20696e636f72726563742060008201527f6f776e6572000000000000000000000000000000000000000000000000000000602082015250565b7f4572726f723a20626f7373206d757374206861766520485020746f206174746160008201527f636b20626f73732e000000000000000000000000000000000000000000000000602082015250565b7f4552433732313a20746f6b656e20616c7265616479206d696e74656400000000600082015250565b7f2c20226d61785f76616c7565223a000000000000000000000000000000000000600082015250565b7f4552433732313a207472616e7366657220746f20746865207a65726f2061646460008201527f7265737300000000000000000000000000000000000000000000000000000000602082015250565b7f4552433732313a20617070726f766520746f2063616c6c657200000000000000600082015250565b7f4552433732313a2061646472657373207a65726f206973206e6f74206120766160008201527f6c6964206f776e65720000000000000000000000000000000000000000000000602082015250565b7f4572726f723a20636861726163746572206d757374206861766520485020746f60008201527f2061747461636b20626f73732e00000000000000000000000000000000000000602082015250565b7f7d205d7d00000000000000000000000000000000000000000000000000000000600082015250565b7f4552433732313a20617070726f76652063616c6c6572206973206e6f7420746f60008201527f6b656e206f776e6572206e6f7220617070726f76656420666f7220616c6c0000602082015250565b7f4552433732313a206d696e7420746f20746865207a65726f2061646472657373600082015250565b7f7b226e616d65223a202200000000000000000000000000000000000000000000600082015250565b7f4552433732313a20696e76616c696420746f6b656e2049440000000000000000600082015250565b7f4552433732313a20617070726f76616c20746f2063757272656e74206f776e6560008201527f7200000000000000000000000000000000000000000000000000000000000000602082015250565b7f646174613a6170706c69636174696f6e2f6a736f6e3b6261736536342c000000600082015250565b7f222c20226465736372697074696f6e223a202245737461204e4654206461206160008201527f636573736f20616f206d6575206a6f676f204e465421222c2022696d6167652260208201527f3a20220000000000000000000000000000000000000000000000000000000000604082015250565b7f222c202261747472696275746573223a205b207b202274726169745f7479706560008201527f223a20224865616c746820506f696e7473222c202276616c7565223a20000000602082015250565b7f7d2c207b202274726169745f74797065223a202241747461636b2044616d616760008201527f65222c202276616c7565223a2000000000000000000000000000000000000000602082015250565b7f4552433732313a2063616c6c6572206973206e6f7420746f6b656e206f776e6560008201527f72206e6f7220617070726f766564000000000000000000000000000000000000602082015250565b61462681613e72565b811461463157600080fd5b50565b61463d81613e84565b811461464857600080fd5b50565b61465481613e90565b811461465f57600080fd5b50565b61466b81613edc565b811461467657600080fd5b5056fe426f737320617461636f75206f206a6f6761646f722e204a6f6761646f72206669636f7520636f6d2068703a2025730a4a6f6761646f7220617461636f75206f20626f73732e20426f7373206669636f7520636f6d2048503a2025734142434445464748494a4b4c4d4e4f505152535455565758595a6162636465666768696a6b6c6d6e6f707172737475767778797a303132333435363738392b2f0a4a6f6761646f7220636f6d20706572736f6e6167656d20257320697261206174616361722e2054656d202573206465204850206520257320646520506f646572206465204174617175654d696e746f75204e465420632f20746f6b656e4964202573206520636861726163746572496e646578202573a26469706673582212208b1a85b50c2ccc43590b6afe2fac78640bd245487b5d434aaf53c3a3388a592b64736f6c63430008040033506572736f6e6167656d20696e696369616c697a61646f3a20257320636f6d2025732064652048502c20696d67202573426f737320696e696369616c697a61646f20636f6d207375636573736f20257320636f6d2048502025732c20696d67202573",
  "linkReferences": {},
  "deployedLinkReferences": {}
}